:020000040800F2
:10000000600600206D0100082D020008250200088E
:10001000290200081F0200088103000800000000F8
:100020000000000000000000000000003102000895
:1000300023020008000000002F0200081D03000832
:100040008701000887010008870100088701000870
:100050008701000887010008870100088701000860
:100060008701000887010008870100088701000850
:100070008701000887010008870100088701000840
:100080008701000887010008870100088701000830
:100090008701000887010008870100088701000820
:1000A0008701000887010008870100088701000810
:1000B0008701000887010008870100088701000800
:1000C00087010008870100088701000887010008F0
:1000D00087010008870100088701000887010008E0
:1000E00087010008870100088701000800F002F876
:1000F00000F02CF80AA090E8000C82448344AAF196
:100100000107DA4501D100F021F8AFF2090EBAE893
:100110000F0013F0010F18BFFB1A43F0010318473B
:100120006802000078020000002300240025002659
:10013000103A28BF78C1FBD8520728BF30C148BF4A
:100140000B6070471FB51FBD10B510BD00F031F832
:100150001146FFF7F7FF00F015F900F04FF803B470
:10016000FFF7F2FF03BC00F053F800000948804796
:1001700009480047FEE7FEE7FEE7FEE7FEE7FEE789
:10018000FEE7FEE7FEE7FEE704480549054A064BA1
:100190007047000021030008ED0000086000002007
:1001A0006006002060020020600200207047704757
:1001B0007047754600F028F8AE460500694653467C
:1001C00020F00700854618B020B5FFF7DDFFBDE839
:1001D00020404FF000064FF000074FF000084FF0AE
:1001E000000B21F00701AC46ACE8C009ACE8C0093F
:1001F000ACE8C009ACE8C0098D4670470446AFF3CF
:1002000000802046FFF7ABFF004870470000002049
:1002100001491820ABBEFEE726000200704700BF70
:10022000FEE7704700BFFEE700BFFEE7704770477C
:10023000704710B500F002F810BD00000CB50020AA
:10024000019000903348006840F4803031490860E4
:1002500000BF3048006800F4003000900198401C56
:100260000190009818B90198B0F5A06FF1D1294814
:10027000006800F4003010B10120009001E000207F
:1002800000900098012843D12348006840F01000F6
:10029000214908600846006820F007000860084609
:1002A000006840F0020008601A4840681949486038
:1002B0000846406848600846406840F480604860EE
:1002C0000846406820F47C1048600846406840F4C6
:1002D000E81048600846006840F08070086000BF81
:1002E0000C48006800F000700028F9D00948406808
:1002F00020F00300074948600846406840F00200CB
:10030000486000BF0348406800F00C000828F9D19D
:100310000CBD0000001002400020024070470000A9
:1003200010B51348006840F0010011490860084604
:100330004068104908400E494860084600680E4968
:1003400008400B4908600846006820F480200860D7
:100350000846406820F4FE0048604FF41F008860A3
:10036000FFF767FF4FF000600449086010BD000010
:10037000001002400000FFF8FFFFF6FE08ED00E06D
:1003800000BFFEE700BFFEE7980300080000002062
:080390006006000028010008CE
:04000005080000ED02
:00000001FF
